{
  "contractName": "Ico",
  "abi": [
    {
      "inputs": [
        {
          "internalType": "address",
          "name": "tokens",
          "type": "address"
        },
        {
          "internalType": "address payable",
          "name": "owner",
          "type": "address"
        },
        {
          "internalType": "uint256",
          "name": "price",
          "type": "uint256"
        }
      ],
      "stateMutability": "nonpayable",
      "type": "constructor"
    },
    {
      "stateMutability": "payable",
      "type": "receive",
      "payable": true
    },
    {
      "inputs": [],
      "name": "buy",
      "outputs": [],
      "stateMutability": "payable",
      "type": "function",
      "payable": true
    }
  ],
  "bytecode": "0x608060405234801561001057600080fd5b506040516106b63803806106b68339818101604052606081101561003357600080fd5b81019080805190602001909291908051906020019092919080519060200190929190505050816000806101000a81548173ffffffffffffffffffffffffffffffffffffffff021916908373ffffffffffffffffffffffffffffffffffffffff16021790555082600160006101000a81548173ffffffffffffffffffffffffffffffffffffffff021916908373ffffffffffffffffffffffffffffffffffffffff160217905550806002819055505050506105c4806100f26000396000f3fe6080604052600436106100225760003560e01c8063a6f2ae3a1461002e57610029565b3661002957005b600080fd5b610036610038565b005b600061004f6002543461026990919063ffffffff16565b90506000610068600254346102b390919063ffffffff16565b9050600160009054906101000a900473ffffffffffffffffffffffffffffffffffffffff1673ffffffffffffffffffffffffffffffffffffffff166323b872dd6000809054906101000a900473ffffffffffffffffffffffffffffffffffffffff1633856040518463ffffffff1660e01b8152600401808473ffffffffffffffffffffffffffffffffffffffff1673ffffffffffffffffffffffffffffffffffffffff1681526020018373ffffffffffffffffffffffffffffffffffffffff1673ffffffffffffffffffffffffffffffffffffffff1681526020018281526020019350505050602060405180830381600087803b15801561016857600080fd5b505af115801561017c573d6000803e3d6000fd5b505050506040513d602081101561019257600080fd5b8101908080519060200190929190505050506000809054906101000a900473ffffffffffffffffffffffffffffffffffffffff1673ffffffffffffffffffffffffffffffffffffffff166108fc6101f283346102fd90919063ffffffff16565b9081150290604051600060405180830381858888f1935050505015801561021d573d6000803e3d6000fd5b503373ffffffffffffffffffffffffffffffffffffffff166108fc829081150290604051600060405180830381858888f19350505050158015610264573d6000803e3d6000fd5b505050565b60006102ab83836040518060400160405280601a81526020017f536166654d6174683a206469766973696f6e206279207a65726f000000000000815250610347565b905092915050565b60006102f583836040518060400160405280601881526020017f536166654d6174683a206d6f64756c6f206279207a65726f000000000000000081525061040d565b905092915050565b600061033f83836040518060400160405280601e81526020017f536166654d6174683a207375627472616374696f6e206f766572666c6f7700008152506104ce565b905092915050565b600080831182906103f3576040517f08c379a00000000000000000000000000000000000000000000000000000000081526004018080602001828103825283818151815260200191508051906020019080838360005b838110156103b857808201518184015260208101905061039d565b50505050905090810190601f1680156103e55780820380516001836020036101000a031916815260200191505b509250505060405180910390fd5b5060008385816103ff57fe5b049050809150509392505050565b60008083141582906104ba576040517f08c379a00000000000000000000000000000000000000000000000000000000081526004018080602001828103825283818151815260200191508051906020019080838360005b8381101561047f578082015181840152602081019050610464565b50505050905090810190601f1680156104ac5780820380516001836020036101000a031916815260200191505b509250505060405180910390fd5b508284816104c457fe5b0690509392505050565b600083831115829061057b576040517f08c379a00000000000000000000000000000000000000000000000000000000081526004018080602001828103825283818151815260200191508051906020019080838360005b83811015610540578082015181840152602081019050610525565b50505050905090810190601f16801561056d5780820380516001836020036101000a031916815260200191505b509250505060405180910390fd5b506000838503905080915050939250505056fea264697066735822122069dbdfd47b542585e46041ed63cab38a1df5d50e86d73f48082b91b636c9c88f64736f6c63430006020033",
  "source": "pragma solidity ^0.6.0;\n\nimport '../contracts/METoken.sol' as MET;\nimport 'openzeppelin-solidity/contracts/math/SafeMath.sol';\n\ncontract Ico \n{\n    using SafeMath for uint256;\n\n    address payable _owner;\n    MET.METoken _tokens;\n    uint256 _price;\n\n    constructor(\n        address tokens, \n        address payable owner,\n        uint256 price) public\n    {\n        _owner = owner;\n        _tokens = MET.METoken(tokens);\n        _price = price;\n    }\n\n    function buy() public payable\n    {\n        uint256 qty = msg.value.div(_price);\n        uint256 rem = msg.value.mod(_price);\n        \n        _tokens.transferFrom(_owner, msg.sender, qty);\n        _owner.transfer(msg.value.sub(rem));\n\n        msg.sender.transfer(rem);\n    }\n\n    receive() external payable\n    {\n    }\n}\n",
  "sourcePath": "/home/hendrik/src/code-gymnastics/blockchain/mastering-ethereum/METoken/contracts/Ico.sol",
  "compiler": {
    "name": "solc",
    "version": "0.6.2+commit.bacdbe57.Emscripten.clang"
  },
  "schemaVersion": "3.1.0",
  "updatedAt": "2020-05-12T15:36:27.575Z",
  "networkType": "ethereum",
  "devdoc": {
    "methods": {}
  },
  "userdoc": {
    "methods": {}
  }
}